:020000040000fa
:080000000002040000000000f2
:020000040000fa
:040008008e03000063
:020000040000fa
:04000c00d00300001d
:020000040000fa
:0400100010040000d8
:020000040000fa
:04001400ae03000037
:020000040000fa
:04001800f0030000f1
:020000040000fa
:04001c003e0600009c
:020000040000fa
:0400200030040000a8
:020000040000fa
:040024003e06000094
:020000040000fa
:040028003e06000090
:020000040000fa
:04002c006a04000062
:020000040000fa
:040030003e06000088
:020000040000fa
:040034003e06000084
:020000040000fa
:040038003e06000080
:020000040000fa
:04003c003e0600007c
:020000040000fa
:040040003e06000078
:020000040000fa
:040044003e06000074
:020000040000fa
:040048003e06000070
:020000040000fa
:04004c003e0600006c
:020000040000fa
:040050003e06000068
:020000040000fa
:0400540000050000a3
:020000040000fa
:04005800a004000000
:020000040000fa
:04005c003e0600005c
:020000040000fa
:040060003e06000058
:020000040000fa
:040064003e06000054
:020000040000fa
:04006800200600006e
:020000040000fa
:04006c000206000088
:020000040000fa
:040070003e06000048
:020000040000fa
:040074003e06000044
:020000040000fa
:040078003e06000040
:020000040000fa
:04007c003e0600003c
:020000040000fa
:040080003e06000038
:020000040000fa
:040084003e06000034
:020000040000fa
:040088003e06000030
:020000040000fa
:04008c003e0600002c
:020000040000fa
:040090003e06000028
:020000040000fa
:040094003e06000024
:020000040000fa
:040098003e06000020
:020000040000fa
:04009c003e0600001c
:020000040000fa
:0400a0003e06000018
:020000040000fa
:0400a4003e06000014
:020000040000fa
:0400a8003e06000010
:020000040000fa
:0400ac003e0600000c
:020000040000fa
:0400b0003e06000008
:020000040000fa
:0400b4003e06000004
:020000040000fa
:0400b8003e06000000
:020000040000fa
:0400bc003e060000fc
:020000040000fa
:0400c0003e060000f8
:020000040000fa
:0400c4003e060000f4
:020000040000fa
:0400c8003e060000f0
:020000040000fa
:0400cc003e060000ec
:020000040000fa
:0400d0003e060000e8
:020000040000fa
:0400d4003e060000e4
:020000040000fa
:0400d8003e060000e0
:020000040000fa
:0400dc003e060000dc
:020000040000fa
:0400e0003e060000d8
:020000040000fa
:0400e4003e060000d4
:020000040000fa
:0400e8003e060000d0
:020000040000fa
:0400ec006c0500009f
:020000040000fa
:0400f0003e060000c8
:020000040000fa
:0400f4003e060000c4
:020000040000fa
:0400f8003e060000c0
:020000040000fa
:0400fc003e060000bc
:020000040000fa
:040100003e060000b7
:020000040000fa
:040104003e060000b3
:020000040000fa
:040108003e060000af
:020000040000fa
:04010c003e060000ab
:020000040000fa
:040110003e060000a7
:020000040000fa
:040114003e060000a3
:020000040000fa
:040118003e0600009f
:020000040000fa
:04011c003e0600009b
:020000040000fa
:040120003e06000097
:020000040000fa
:040124003e06000093
:020000040000fa
:040128003e0600008f
:020000040000fa
:04012c003e0600008b
:020000040000fa
:040130003e06000087
:020000040000fa
:040134003e06000083
:020000040000fa
:040138003e0600007f
:020000040000fa
:04013c003e0600007b
:020000040000fa
:040140003e06000077
:020000040000fa
:040144003e06000073
:020000040000fa
:040148003e0600006f
:020000040000fa
:04014c003e0600006b
:020000040000fa
:040150003e06000067
:020000040000fa
:040154003e06000063
:020000040000fa
:040158003e0600005f
:020000040000fa
:04015c003e0600005b
:020000040000fa
:040160003e06000057
:020000040000fa
:040164003e06000053
:020000040000fa
:040168003e0600004f
:020000040000fa
:04016c003e0600004b
:020000040000fa
:040170003e06000047
:020000040000fa
:040174003e06000043
:020000040000fa
:040178003e0600003f
:020000040000fa
:04017c003e0600003b
:020000040000fa
:040180003e06000037
:020000040000fa
:040184003e06000033
:020000040000fa
:040188003e0600002f
:020000040000fa
:04018c003e0600002b
:020000040000fa
:040190003e06000027
:020000040000fa
:040194003e06000023
:020000040000fa
:040198003e0600001f
:020000040000fa
:04019c003e0600001b
:020000040000fa
:0401a0003e06000017
:020000040000fa
:0401a4003e06000013
:020000040000fa
:0401a8003e0600000f
:020000040000fa
:0401ac003e0600000b
:020000040000fa
:0401b0003e06000007
:020000040000fa
:0401b4003e06000003
:020000040000fa
:0401b8003e060000ff
:020000040000fa
:0401bc003e060000fb
:020000040000fa
:0401c0003e060000f7
:020000040000fa
:0401c4003e060000f3
:020000040000fa
:0401c8003e060000ef
:020000040000fa
:0401cc003e060000eb
:020000040000fa
:0401d0003e060000e7
:020000040000fa
:0401d4003e060000e3
:020000040000fa
:0401d8003e060000df
:020000040000fa
:0401dc003e060000db
:020000040000fa
:0401e0003e060000d7
:020000040000fa
:0401e4003e060000d3
:020000040000fa
:0401e8003e060000cf
:020000040000fa
:0401ec003e060000cb
:020000040000fa
:0401f0003e060000c7
:020000040000fa
:0401f4003e060000c3
:020000040000fa
:0401f8003e060000bf
:020000040000fa
:0401fc003e060000bb
:020000040000fa
:040200003e060000b6
:020000040000fa
:040204003e060000b2
:020000040000fa
:040208003e060000ae
:020000040000fa
:04020c003e060000aa
:020000040000fa
:040210003e060000a6
:020000040000fa
:040214003e060000a2
:020000040000fa
:040218003e0600009e
:020000040000fa
:04021c003e0600009a
:020000040000fa
:040220003e06000096
:020000040000fa
:040224003e06000092
:020000040000fa
:040228003e0600008e
:020000040000fa
:04022c003e0600008a
:020000040000fa
:040230003e06000086
:020000040000fa
:040234003e06000082
:020000040000fa
:040238003e0600007e
:020000040000fa
:04023c003e0600007a
:020000040000fa
:040240003e06000076
:020000040000fa
:040244003e06000072
:020000040000fa
:040248003e0600006e
:020000040000fa
:04024c003e0600006a
:020000040000fa
:040250003e06000066
:020000040000fa
:040254003e06000062
:020000040000fa
:040258003e0600005e
:020000040000fa
:04025c003e0600005a
:020000040000fa
:040260003e06000056
:020000040000fa
:040264003e06000052
:020000040000fa
:040268003e0600004e
:020000040000fa
:04026c003e0600004a
:020000040000fa
:040270003e06000046
:020000040000fa
:040274003e06000042
:020000040000fa
:040278003e0600003e
:020000040000fa
:04027c003e0600003a
:020000040000fa
:040280003e06000036
:020000040000fa
:040284003e06000032
:020000040000fa
:040288003e0600002e
:020000040000fa
:04028c003e0600002a
:020000040000fa
:040290003e06000026
:020000040000fa
:040294003e06000022
:020000040000fa
:040298003e0600001e
:020000040000fa
:04029c003e0600001a
:020000040000fa
:0402a0003e06000016
:020000040000fa
:0402a4003e06000012
:020000040000fa
:0402a8003e0600000e
:020000040000fa
:0402ac003e0600000a
:020000040000fa
:0402b0003e06000006
:020000040000fa
:0402b4003e06000002
:020000040000fa
:0402b8003e060000fe
:020000040000fa
:0402bc003e060000fa
:020000040000fa
:0402c0003e060000f6
:020000040000fa
:0402c4003e060000f2
:020000040000fa
:0402c8003e060000ee
:020000040000fa
:0402cc003e060000ea
:020000040000fa
:0402d0003e060000e6
:020000040000fa
:0402d4003e060000e2
:020000040000fa
:0402d8003e060000de
:020000040000fa
:0402dc003e060000da
:020000040000fa
:0402e0003e060000d6
:020000040000fa
:0402e4003e060000d2
:020000040000fa
:0402e8003e060000ce
:020000040000fa
:0402ec003e060000ca
:020000040000fa
:0402f0003e060000c6
:020000040000fa
:0402f4003e060000c2
:020000040000fa
:0402f8003e060000be
:020000040000fa
:0402fc003e060000ba
:020000040000fa
:040300003e060000b5
:020000040000fa
:040304003e060000b1
:020000040000fa
:040308003e060000ad
:020000040000fa
:04030c003e060000a9
:020000040000fa
:040310003e060000a5
:020000040000fa
:040314003e060000a1
:020000040000fa
:040318003e0600009d
:020000040000fa
:04031c008205000056
:020000040000fa
:040320003e06000095
:020000040000fa
:040324003e06000091
:020000040000fa
:040328008a05000042
:020000040000fa
:04032c00c605000002
:020000040000fa
:040330003e06000085
:020000040000fa
:040334003e06000081
:020000040000fa
:100400006f1f21000eff26000e0188000000000073
:10041000000020000000e000020032000001200087
:1004200020028800140007003b0207000000e000e3
:1004300003003a0000822200010020000200370081
:100440000000200001002000810f70000100320038
:100450000f000700000020000000e0000200320052
:1004600000000200000000007824020000000000ec
:100470000040da000000fe00801f20000000e000c5
:1004800002003200002020009001880000000600d9
:10049000a1028800800478000000eb001f003700f4
:1004a000e284440054a0b4009905ba00e2844400f8
:1004b00054a0b4009906ba00e284440054a0b400e9
:1004c0000006eb00476fde00fd07b200ae018800ba
:1004d000636ce10003003a000ad801000000eb0061
:1004e0000e003700606ce10008003a00004deb00a0
:1004f0000a05e800020039003420ec000af0a000f0
:100500008b05e900f9ff3e00040037006168e10057
:10051000010032000086eb000b00070019c7ba008b
:100520001905ba000e04e00003003a000a00e000da
:10053000dbff3a0000000600fe07b200ae028800b2
:100540008a047800f5ff37000cd0a300e20f4d00bd
:100550001c003b0089027800354dba000a05e8000e
:10056000020039003420ec000af0a0008b05e900fd
:100570000f003200254dba000a05e80002003900dc
:100580003420ec000af0a0008b05e90008003200de
:100590000c00e0000600320015cdba000a05e800a4
:1005a000020039003420ec000af0a0008b05e900bd
:1005b0008984e80054a0b4000b00e000e2ff3a0098
:1005c000000006009902ba00055d78008b05e9007d
:1005d000f7ff3200c82ade00055d78008b05e900d0
:1005e000f3ff32000c00e000f1ff320019ddba0029
:1005f000eeff37003020040000000000fc2a040059
:1006000000000000a6200400000000000e210400ed
:10061000000000005c21040000000000a62104008e
:1006200000000000841a0400000000008e1a04007c
:10063000000000007c1a040000000000541a0400ae
:1006400000000000e2180400000000001c19040073
:100650000000000038190400000000009e1904008a
:1006600000000000ea190400000000004e19040018
:1006700000000000281a040000000000f418040024
:1006800000000000fe18040000000000081904002b
:100690000000000012190400000000005e190400b0
:1006a0000000000068190400000000007219040036
:1006b00000000000ce180400000000007c190400b7
:1006c00000000000c0270400000000004c1b0400d4
:1006d000000000006a1b0400000000001a23040050
:1006e0000000000048230400000000007c230400f8
:1006f000000000009023040000000000ce28040049
:10070000000000003210040000000000de0a0400b7
:1007100000000000c6060400000000003600f800db
:10072000809fbe00829fbe00849fbe00869fbe0049
:100730000000fa00c028a9000000eb00c613070063
:100740000080fa004f03be004f02be004f01be0002
:100750004f00be003600f900004006003600f800e9
:10076000809fbe00829fbe00849fbe00869fbe0009
:100770000000fa00bd130700c048a90010002000c7
:10078000b51307000080fa004f03be004f02be0001
:100790004f01be004f00be003600f90000400600c9
:1007a0003600f800809fbe00829fbe00849fbe007e
:1007b000869fbe000000fa00c068a900200020004b
:1007c000a51307000080fa004f03be004f02be00d1
:1007d0004f01be004f00be003600f9000040060089
:1007e0003600f800809fbe00829fbe00849fbe003e
:1007f000869fbe000000fa00c088a90030002000db
:10080000951307000080fa004f03be004f02be00a0
:100810004f01be004f00be003600f9000040060048
:100820003600f800809fbe00829fbe00849fbe00fd
:10083000869fbe000000fa00c608a90070002000d4
:10084000851307000080fa004f03be004f02be0070
:100850004f01be004f00be003600f9000040060008
:100860003600f800809fbe00829fbe00849fbe00bd
:10087000869fbe000000fa00214680000010200084
:10088000008060000000e00003003200c508a900fd
:10089000c000200070130700204680007000600038
:1008a0000000e00003003200c488a900a00020007e
:1008b0006913070020468000610060000000e0002e
:1008c00003003200c408a900b00020006213070032
:1008d000ffff37003600f800809fbe00829fbe00f9
:1008e000849fbe00869fbe000000fa001081800039
:1008f0000000e000020032001081800000000100d2
:10090000301f2100104078008040e800301f210097
:1009100001487800201f210011c0b3000148780071
:100920000028a9000080fa004f03be004f02be005d
:100930004f01be004f00be003600f9000040060027
:100940003600f800809fbe00829fbe00849fbe00dc
:10095000869fbe000000fa00508080000000e0008a
:1009600002003200508080000000010031808000d1
:1009700020808000808f500002003a002188a9006a
:10098000180037000188a90010003700308080006f
:10099000904078008180fb00411288000000e80050
:1009a000308088003180800030122100808f50001c
:1009b00002003a004002210030808800318080002f
:1009c00020808000808f500005003200f0118000f0
:1009d000700060000000e000ecff32000100370012
:1009e000000000000080fa004f03be004f02be006e
:1009f0004f01be004f00be003600f9000040060067
:100a00003600f800809fbe00829fbe00849fbe001b
:100a1000869fbe000000fa00608080000000e000b9
:100a20000200320060808000000001000168a9001f
:100a30001e00370000808000211280008140780075
:100a40000148780001808000b0122100808f5000a2
:100a500009003200008080008000e80010808000e3
:100a6000808f500004003200008080000000e80009
:100a7000008088000d00370001808000b012210046
:100a8000808f500007003a00118080003012210052
:100a9000808f500003003200301221000080880057
:100aa0000200370010c0b30008f0b700f01180005a
:100ab000620060000000e000deff32000080fa000b
:100ac0004f03be004f02be004f01be004f00be00ec
:100ad0003600f90000400600801f78000000fa0090
:100ae000e0118000620060000000e00001003200c0
:100af0003c22a9000628a9000080fa004f007800d7
:100b0000004006000000fa0017a8a9000080fa00c3
:100b1000004006003600f800809fbe00829fbe00a5
:100b2000849fbe00869fbe003200f8003400f800ab
:100b300010002000a00188000020200000d0fe004e
:100b40000200fa00e1618000010f780090808000cf
:100b50000000e00003003200918080001e00780059
:100b6000010001001808a9000080fa003400f90013
:100b70003200f9004f03be004f02be004f01be001d
:100b80004f00be003600f900004006003600f800b5
:100b9000809fbe00829fbe00849fbe00869fbe00d5
:100ba0003200f8003400f80010002000a001880096
:100bb0000020200000d0fe000200fa00f161800059
:100bc000010f7800a08080000000e00003003200e8
:100bd000a18080001e007800010001001828a900f3
:100be0000080fa003400f9003200f9004f03be0023
:100bf0004f02be004f01be004f00be003600f9009c
:100c0000004006003600f800809fbe00829fbe00b4
:100c1000849fbe00869fbe000000fa00c080800056
:100c2000000001000080fa004f03be004f02be002a
:100c30004f01be004f00be003600f9000040060024
:100c40003600f800809fbe00829fbe00849fbe00d9
:100c5000869fbe000000fa00d080800000000100e6
:100c60000080fa004f03be004f02be004f01be00dd
:100c70004f00be003600f900004006000040da00d8
:100c80000000fe000a00fa0011002000b1bf9f0022
:100c9000c0bf9f006a805700370607004fb8970013
:100ca0000080fa00000006000a00fa002007980001
:100cb0003107980042079800be0090001107980085
:100cc0000000eb00000f78000c003700000000006f
:100cd000b90a07000004a2000004e000fcff3a008b
:100ce0001e009000104078009e0090008100e800f7
:100cf00011079800900a07001e0fe8004e009000b0
:100d00009e007800808f5000f0ff39004e00900068
:100d10000080fa0000000600000005000000fa0054
:100d200068815700cfb89700608980001000780074
:100d3000fd0107000080fa00000006001a0007000d
:100d400073000700260107004e010700a7000700f7
:100d500078020700230237000000fa00688157007c
:100d6000cfb89700fe0107000080fa0000000600df
:100d70000d00070066000700190107004101070088
:100d80009a0007006b0207001602370000000600f9
:100d90002013210000000600fdff07008089880065
:100da0007089880000000600ec874700889fbe001d
:100db0008a9fbe008c9fbe008e1f780000067800c0
:100dc0000104780018079000280590009806780024
:100dd000cdb79f00b80590003202be002203be00ce
:100de0000400be000601be004f18de006011b8000e
:100df0008000eb00d0b79f00e1b79f00f2b79f00e3
:100e000083bf9f00800478000900e00006003200e4
:100e10006000b8006011b8000402500085825800dc
:100e200006035900878359000e00e00002003500d8
:100e30000d10a100cdb79f000900e00005003a00a9
:100e40004fb097000028a30002003a000038a3002a
:100e5000020032008a00e900010037008a007800b1
:100e6000f8815700a20020000800780089000700e0
:100e70000900e00003003a00cfb097000128a3006a
:100e8000080032000000e90000814500b1c2b30053
:100e90000900e00001003200d1c2b300014978002e
:100ea000060037000138a300040032000000e9000a
:100eb0008080450002c2b30082487800480190005b
:100ec0000201e90000015100808045004fb2970007
:100ed0008a0178000c007800610207009c009000f5
:100ee0000188a3000400320098009000810f500098
:100ef00001003d00010078004f0778004f06be005a
:100f00004f05be004f04be00cf00b1000000060038
:100f10000200fa00889fbe008a9fbe00800578000c
:100f20000104780002007800180190002805900064
:100f300098007800b1bf9f00b80490000200e00064
:100f4000020035000110a100b1bf9f00ea815700e7
:100f5000820020008a0078003002be002003be001c
:100f6000080078004b0007003fb99700f0006100cf
:100f7000040032000000e9008080440002c3b30096
:100f8000824878003fb99700e80061000400320011
:100f90000000e9008080440002c2b300824878006b
:100fa000480190000201e9000001510080804400e6
:100fb0003fba97008a0178000b00780028020700ea
:100fc0009b0090000188a30004003200980090006c
:100fd000810f500001003d00010078004f05be0068
:100fe0004f04be000080fa0000000600ea874700b8
:100ff000889fbe008a9fbe008e1f78000004780084
:10100000030078007287570084e2260055c7260047
:10101000049fbe00c3962200030f78006c87570020
:10102000004feb0011059000a1049000910578009d
:101030000200e000020032000207780001003700e1
:10104000728757000000e00002003a000e007800ae
:10105000d10407000a00e000030035008a0f5000a9
:10106000010036000a0078000b0278008901780040
:10107000000178008e00780008007800f801070071
:101080004f0778004f05be004f04be00af00b1000f
:1010900000000600f4874700889fbe008a9fbe00bc
:1010a0008c9fbe008e1f78000605be000404be00a3
:1010b00081bf9f0082b79f00f3b79f00b0009000f0
:1010c000e1b79f001301780092b79f00900690004f
:1010d000400090000000e900000678000d00e000ec
:1010e00001003d001d002000efb19700008041008d
:1010f0000048eb001e0020001f0037000c06e9002e
:101100000fb09700cf80de006109b900a0b79f0043
:10111000b1b79f00c2b79f00d3b79f000203be00c4
:101120000002be000800be000a01be00ee05070076
:1011300000077800efb097000c80400003c3b300b5
:10114000034847008d06e9000fb897000000e9004a
:1011500080bf9f002fb29700bfb297004fb3970098
:10116000dfb397000800be000a01be00d7050700e4
:101170000205be000004be000c00e0000d003400bb
:10118000e00f5400e08f5c00e00f5d00e08f5d0039
:10119000daff3a000d00e000d8ff3c008fb897005e
:1011a0000100e000030034001fb197000218a30003
:1011b000d2ff3a000e00e00002003a00ffb19700b3
:1011c0001340a1000c0078004f0778004f06be00c6
:1011d0004f05be004f04be004f01b10000000600e5
:1011e0000200fa00889fbe008a9fbe0000057800ba
:1011f000010478000200780018019000a804900013
:1012000098007800b1bf9f00b80590000200e00090
:10121000020035000110a100b1bf9f00ea81570014
:10122000a2002000890078003002be002003be002a
:101230000800780097ff0700480190000201e900cc
:1012400000015100808045003fba97008901780075
:101250000a007800820107009a0090000188a3002c
:101260000400320098009000810f500001003d0002
:10127000010078004f05be004f04be000080fa0058
:1012800000000600fa874700889fbe008a9fbe00c4
:101290008c9fbe008e1f78008004780001047800c7
:1012a0008205780018019000280590001807780042
:1012b000b80090000200e000020035000e10a1000e
:1012c000010037001200200070006700e0b79f00a7
:1012d000090032003b02be002b03be00e00f5200ab
:1012e000e08f5a00e00f5b00e08f5b0002003200ed
:1012f0008a86e900010037008a067800e802670064
:10130000f5b79f00010032008d06e9003b02be00e8
:101310002b03be00e4af9f00f5af9f0086b79f0090
:1013200097b79f00480690000c06e9000c8040002b
:101330000048eb00efb297007fb297008903780076
:1013400081047800d8af9f00020478008bbf9f0013
:101350008a057800034578002b0037000c06e90069
:101360006fab97006f006300e90f500002003c0074
:101370000003b000010037007005b0000a03fb0055
:101380001604b100f90f53000c003e000003780072
:101390000650a0001606b100f90f530007003e00ea
:1013a000b4b79f00a5b79f00c7b79f0023040700ed
:1013b000cfb39700afb297003fb297000c834400c1
:1013c000004b78000804e9008d06e9006fa897003b
:1013d000ffa897000fb197009fb19700460020002b
:1013e0008301d1000281d3008180d3000080d3002b
:1013f0000603e900faff3a00e0af9f00f1af9f005b
:1014000082b79f0093b79f00e10f56000f00340092
:101410006fa89700ffa897000fb197009fb19700a2
:10142000e00f5000e08f5800e00f5900e08f5900a6
:10143000caff3a000800e000c8ff3c000d00e000d1
:10144000020034000e18a300c4ff3a00890078009f
:10145000f4b79f00870478005fac97008a4178005a
:101460000b0578008fbd97000500e00012003200e8
:101470003b02be002b03be00e4af9f00f5af9f0010
:1014800086b79f0097b79f00e00f5200e08f5a0089
:10149000e00f5b00e08f5b00070032000c06e90004
:1014a0000c804000034878000c06e9000c804000e6
:1014b00002c3b30002487800ffb297000500e000c5
:1014c000040032000c06e9000c80400002c2b300a8
:1014d00002487800480190000201e9000c01510027
:1014e0008c8040000e0278008a01780009007800a4
:1014f000db000700990090000188a300040032007f
:1015000098009000810f500001003d00010078001c
:101510004f0778004f06be004f05be004f04be00c7
:10152000af01b100000006000200fa00881f780039
:1015300000047800e2bf9f00648157000800780033
:1015400089020700980090000148a30001003200c2
:101550000080eb004f0478000080fa0000000600d5
:101560008201780001017800f1ff2700be033700f7
:10157000889fbe0000047800480090008204780034
:10158000808f540001003600800478000901780043
:101590005800900015030700580090000900400013
:1015a00050049800c80090008984500049049800b5
:1015b0000048eb004f04be00000006001000780059
:1015c000b9fd3700900190000388a30001003200ac
:1015d000e7ff37000348a30001003a00f7ff0700c8
:1015e0000000060084082000848f50001d00320097
:1015f0000d003c0014082000848f500027003200aa
:1016000002003c00040820000400370024082000e9
:10161000848f50003400320044082000848f500032
:1016200043003a0036003700040a2000848f50003f
:101630002700320004003c0004092000848f500081
:101640003b003a0028003700020c2000828f500037
:101650002f003200020f2000828f500034003a0029
:101660002b0037009380e9000200e0000500320003
:10167000810978001102fb00cfa2de00612bb900c6
:101680002800370081097800114278000482fb00ad
:101690008002eb006033b8002200370013027800ac
:1016a000e40052000200e0000500320081097800e9
:1016b0001102be004fabde00860378001900370030
:1016c000810978001102be006033b80015003700b0
:1016d0009380e9008109780011027800cfa2de0032
:1016e000612bb9000f00370093027800e8805200a8
:1016f000810978003102be002103be0009003700d5
:101700009380e9000200e00002003200f1ff3700a0
:101710009380e90081097800110278008002eb00d3
:101720006033b8000498be000690be0010000500ab
:101730000000050044082000848f5000250032007e
:1017400008003c0014082000848f50001400320070
:1017500024082000848f5000240032000408200058
:101760000c00370004092000848f50001f00320055
:1017700004003c0084082000848f500024003a00bc
:101780000e003700040a2000848f50001100320040
:10179000040c2000848f50001d003a000d0037001b
:1017a0009380e900810978009100780001087800b1
:1017b000cf91de008288be00140037009380e900dc
:1017c000810978009100780001087800824878004b
:1017d0000e0037009380e9008109780091007800bd
:1017e0000108780082087800080037009380e9003b
:1017f0008109780091007800010878006112b90031
:10180000612bb9008498be008690be0010000500d0
:1018100000000500889fbe0000047800480090008a
:1018200082047800808f5400010036008004780024
:1018300009017800580090006c02070058009000e1
:101840000900400050049800c800900089845000ae
:10185000490498000048eb004f04be000000060059
:10186000f2874700889fbe008a9fbe008c9fbe0003
:101870008e1f78008004780001057800020478004b
:10188000830578006107620002003a008b0f540064
:1018900008003900080178008a0078000900780003
:1018a00048ff07008b0f54000200390088057800bc
:1018b0001e003700088655000c017800f00f560016
:1018c0000100360002012000010220007e80570046
:1018d0004d0207008c067800050037000201200049
:1018e000fe8057000900780036ff0700f08656009a
:1018f000ef8f5600f9ff3e004461de0000ff2f002d
:101900008091b9000c014100fe8057000900780069
:101910002cff07000e00e00004003a0008017800e8
:101920008a0078000900780026ff07000b00780085
:101930004f0778004f06be004f05be004f04be00a3
:101940002f01b100000006000000050000000500a6
:1019500000000500000178000040eb008080fb00e3
:1019600081804000c31d2100818141001342780025
:101970000404e00004003a00d01d21008100400072
:10198000114078000000060092017800934f520049
:1019900005003a00d01d2100810040001140780070
:1019a0000309e800010037000040e800ea4f50005a
:1019b000eaff360000000600f6874700889fbe0059
:1019c0008a9fbe008c9fbe008e1f780000057800a5
:1019d0000104780083057800040678000000eb001d
:1019e000c0b79f008080eb00d1b79f00e0b79f0099
:1019f000f2b79f000008200080bf9f009800780089
:101a0000010078008004eb00010037008904e80041
:101a1000304178000204e0000300320053c2b300fa
:101a2000834f5100f9ff3a000900e0000400320042
:101a3000090178000a007800e2fe0700188c4400d3
:101a40001807780050c2b3009e4f10003f013a00c3
:101a50000e07e8000e0c780010003700cfb097009a
:101a60000100a0000b003700cfb097000110a000cc
:101a700008003700cfb097000120a0000500370014
:101a8000cfb097000130a00002003700cfb0970020
:101a90000140a000c1b79f00000ce80018007800ca
:101aa00090407800b2c2b30082cf5000f1ff320004
:101ab00007003c0002c2b30082cf5000f0ff3200aa
:101ac00032c2b30082cf500007003a00efff370068
:101ad000d2c2b30082cf5000e0ff320002c3b30095
:101ae00082cf5000e0ff3200a2c2b30082cf50008c
:101af0000d003a00000ce8001c80e900000e7800a0
:101b000010007800e0b79f000000e0000f003d00eb
:101b1000cfb097000100a200c1b79f000000ea000b
:101b2000e0b79f000900370084010700e0b79f007d
:101b300001003700000ce800180078009000fb005e
:101b40000103b100e98f5000faff36004fb0970053
:101b50000008a300020032000010a100c0b79f00df
:101b600018007800e1c2b30090cf100016003a00d0
:101b70008000eb00d1b79f000000e800000c780067
:101b8000a1c2b30090cf100006003a00000ce8009c
:101b90001c80e900000e780010007800d0b79f008c
:101ba0000900370065010700d0b79f00010037002a
:101bb000000ce800180078009000fb000103b10061
:101bc000e98f5000faff36000800780061ff070037
:101bd00080467800180078001000fb001002070013
:101be00091062000810f50003800320012003c00a6
:101bf00041062000810f5000340032000a003c00f2
:101c000011062000810f5000200032003106200014
:101c1000810f5000a000320051022000810f5000bf
:101c2000bc003a00b400370071062000810f50005c
:101c3000b8003c008800370001072000810f5000e9
:101c40005c00320007003c00e1062000810f5000dc
:101c50007a003200f1062000810f5000ad003a00fa
:101c60003900370051072000810f50002700320053
:101c700081072000810f5000420032003107200010
:101c8000810f5000a3003a008f0037008d80fb00c9
:101c90000c01780000fe2f000f0040001702070023
:101ca0000000e000a800320018007800000ce800f6
:101cb0009041780002fe2f000f014100f88057008c
:101cc0000a00780021ff07000e0037008d80fb001e
:101cd0008c0178001200200000fe2f000f00400051
:101ce00040fe07000000e00097003200180ce800fa
:101cf00002fe2f000f014100f88057000a00780013
:101d000029fc070080844400900037008d80fb0090
:101d10008c0178000001eb0000fe2f000f00400056
:101d200030fe07000000e00087003200180ce800d9
:101d300002fe2f000f014100f88057000a007800d2
:101d400027fd0700efff37008d80fb008c01780036
:101d50000001eb0000fe2f000f00400021fe0700f5
:101d60000000e00078003200180ce80002fe2f00ae
:101d70000f014100f88057000a00780064fc07005a
:101d8000e0ff37008d80fb008c0178000001eb0044
:101d900000fe2f000f00400012fe07000000e000d0
:101da0006900320018007800000ce80090417800cb
:101db0001c0037008c0178000001eb00010f2000af
:101dc00000fe2f000f00400006fe07000000e000ac
:101dd0005d003200180ce8000fb097009fb097002c
:101de0002fb19700bfb19700e00f5000e08f58006f
:101df000e00f5900e08f590009003a00cfb5970075
:101e00006fb49700401d2100630107000b027800aa
:101e10008801780000017800411d2100470037004b
:101e200083c7b30002fe2f000f014100f880570066
:101e30000a00780013fd0700b2ff37000b81440051
:101e40008d80fb008c01780000fe2f000f00400009
:101e500038fe07003c0037008d80fb000c01780045
:101e600000fe2f000f004000a40107000000e0006a
:101e70003500320018007800000ce800904178002e
:101e800002fe2f000f014100f88057000a00780081
:101e9000aefe07009bff370000c8b30080cf56009e
:101ea00029003a00180ce8001c80e900000e7800b8
:101eb00010407800e0df9f0013002000e2fd2f00bb
:101ec0000f0141000800370000c8b30080cf560062
:101ed0001d003a00180ce8001c80e900000e780094
:101ee0008001eb0010017800f88057000a007800ac
:101ef0003efc070083ff370000c8b30080cf5600c8
:101f000011003a00180ce8004fb29700efb19700ab
:101f1000080037000e0c78000000eb00c0b79f00ef
:101f2000e0b79f000080eb00d0b79f000002eb00fd
:101f30008401780012002000a11d21000a00780011
:101f400047fe07006fff3700180ce8000900780013
:101f50004f0778004f06be004f05be004f04be007d
:101f60006f01b100000006008200fa00889fbe00e9
:101f70008a1f78000005780082047800c13f9f0026
:101f80000004eb0010003700090278008801780097
:101f9000a2f72f000f01410081f72f008f80400032
:101fa0000a00780084fe070008004000880f5000f7
:101fb00004003d00b0042000a08f88000084eb00e6
:101fc00004003700000478004f3897001004e00048
:101fd000edff3a00080078004f0578004f04be007e
:101fe0000080fa0000000600889fbe000004be00ca
:101ff0000000eb000800e00018003200180090001c
:102000000058a3000d003200d80090006800900036
:10201000808f500009003600b80990000001eb00e5
:10202000820078000800780003000100d8009000ca
:102030000080eb000100e000080032000000eb002f
:10204000200c980060049800500498000900e000fb
:1020500002003200180078000afb07004f04be009f
:1020600000000600889fbe000004be000000eb00d8
:102070000800e00025003200180090000058a3007e
:1020800011003200d800900068009000808f50004e
:1020900009003600b80990000001eb0082007800ca
:1020a0000800780003000100d80090000080eb00d9
:1020b0000100e000150032000000eb00200c980049
:1020c0006004980050049800780a9000081090006e
:1020d000800f520006003100000252001100200063
:1020e000cfa2de00612bb90018007800390007008c
:1020f0000000eb0000149800700c98000900e0004c
:102100000200320018007800defa07004f04be001b
:10211000000006008000780010002000020220006d
:10212000828f500004003200e9805000e48f50009c
:10213000010036000000eb0000000600889fbe0092
:102140008a1f7800000578000a0478009844780017
:102150000805e8000900fb00eeff07000000e000b2
:10216000f9ff3a00b0c2b30080cf5400050032003e
:10217000d0c2b3008000eb0080cf540005003a00cd
:10218000020037008000eb00010037001100200042
:102190000804e8000000eb0003003700ea00b90083
:1021a000020050000003b0003801fb0003fd2f00c7
:1021b00082814100e98f5100f8ff36000100e00004
:1021c00001003a000000ea004f0578004f04be000d
:1021d00000000600a0fd2f00f1ff2f008600070081
:1021e0004f89de008201780000000600800178003f
:1021f00002003700b15978000201e9000200e00056
:10220000fcff3a0000000600889fbe008a9fbe00c7
:10221000800478000200e0005b003200014078009a
:10222000814c780082814400f1f99f00e20f510057
:102230005500360091449800a1449800e1f99f00b0
:10224000d1f99f00e60f51004f003600b1449800cd
:10225000c1f99f00e80f51004b0036000905ea0064
:10226000630565000a8444000a055100c1ff2f0080
:10227000010565000080fb008000eb0012102000cb
:1022800013102000f2000700008cbe000a01440079
:1022900060b99f0071b99f00e80f55003a00360001
:1022a00020049800310498004004980051049800dc
:1022b00020b99f0031b99f0040b99f0051b99f00dc
:1022c000f80f550030003600600498007104980043
:1022d000000c9800110c9800200c9800310c98000c
:1022e000400c9800510c980020b19f0031b19f0024
:1022f00040b19f0051b19f0060b19f0071b19f003c
:1023000000b99f0011b99f00640164007801410089
:1023100002044400020555006011b8000203be002b
:102320000002be000403be006022b800000072007c
:1023300081807200020173008381730010003700f6
:10234000009cbe000294be00400498005104980016
:102350006204980073049800000c9800110c980017
:10236000220c9800330c9800400c9800510c9800f7
:10237000620c9800730c98000a02b1000802b000c9
:10238000ff0f5500eeff3e00090078004f05be002c
:102390004f04be00000006008000780004003700f3
:1023a0003104e00002003a00000051000000060085
:1023b000010178000108a300f9ff3a0081017800cb
:1023c00031017800f4ef2f00020242000281ea009e
:1023d000020162000408280004016100f7ff3200d6
:1023e00083007800010178003104e000fdff3a002d
:1023f000000051000000060002002f00f3ff2f0034
:10240000820f5000838f5800040036000000ea005d
:10241000a08f88000080eb008080eb0000000600a9
:10242000f1fb2f0080804000f98f500001003e003a
:102430000050a00000000600f9ff3700f1f92f005e
:1024400080804000f98f500001003e00f005b2008e
:1024500000000600f9ff3700000006004efa0700f2
:10246000fdff0700fcff3700f28747008e1f780052
:1024700002027800030178000000e0000200320050
:102480000007780001003700728757008002eb00d8
:102490000100e000010032008102e9007080570075
:1024a000060009000018eb000080eb0080bf9f00d1
:1024b0002310200093bf9f00aebf9f00b1bf9f00bd
:1024c000c5bf9f000100e00003003d00b1042000f3
:1024d000a18f880006003700004feb00eebf9f0081
:1024e000debf9f0084007800708057000efc07005c
:1024f0004f0778002f01b10000000600881f780008
:102500000004780000082000808f5000170035007c
:1025100010082000808f50000b003400300820008d
:10252000808f500011003a009200780068805000bf
:10253000000978003002be002003be00049cbe00eb
:102540000694be00070037009202780064805200b3
:10255000000978001000be0009000700009cbe00c2
:102560000294be0010002000010037000000eb00c4
:102570004f0478000000060000c0da0000000600ea
:10258000810378001d0007000001be006000b80054
:102590000478a30013003a006220e10015003e0019
:1025a0000d0039008301d1000281d3008180d30066
:1025b0008301d1000281d3008180d3008301d10047
:1025c0000281d3008180d3000538b000c42add0029
:1025d000f300b2008381720007f0a70003f0a000af
:1025e0000000060083ff2700020020006110b900f0
:1025f000f9ff370003ff2700f7ff3700c70ade00a7
:10260000f107b200f50fb20008003200e1cf42003e
:10261000020032000170a00024000500810f70004c
:10262000010032000408050044000500810f70001d
:1026300002003a00140005008502e9000000400095
:1026400081c04800fcff3b000170a0002400050091
:10265000020ab900001bb9000200b8008100420064
:102660008100430000000600889fbe008a9fbe00d4
:1026700030044200b0844a0030054b0090854b0086
:102680006000b1000898be000a90be000440e1005e
:1026900005c8e10006d0e10007d8e10002003100e2
:1026a000680040001008e8004f05be004f04be005f
:1026b00000000600889fbe008a9fbe003004be0056
:1026c0002005be000418540005985c0006185d0043
:1026d00007985d00110020000440e10005c8e100fa
:1026e00006d0e10007d8e100010039008000eb00ce
:1026f000108810004f05be004f04be000000060009
:102700001200fa00889fbe008a9fbe008c9fbe0008
:10271000e0b79f00f1b79f0082bf9f0093bf9f006b
:102720000605be000404be000000eb00d0b79f0009
:10273000c0b79f00b0b79f00a0b79f0090b79f00a1
:10274000000678005fb19700cfb09700820141008a
:102750003fb097000200e00004003d003700070092
:102760007e805700c0ff07000300370033000700da
:102770007e805700cfff0700dfb697000d00e00016
:102780000c0035006fb29700ffb297000fbb9700a7
:102790009fbb970010002000010020006011b800ce
:1027a000000272008182720002037300838373004f
:1027b0001b0007000c06e80001042000810f5600f2
:1027c000e0ff3a000d00e00004003d000802be00fa
:1027d0000a03be007e805700a3ff07005fa8970092
:1027e0000000e00005003a001fb29700afb297006a
:1027f0003fb39700cfb39700090007006fb0970071
:10280000ffb097000fb997009fb997004f06be0021
:102810004f05be004f04be000080fa000000060015
:102820000100070000000600a4b79f00b5b79f0095
:10283000c6b79f00d7b79f00000006004f09de0013
:1028400082817100b3b79f004f01de00818040009c
:1028500082807000a1b79f008fb097004f09de0003
:10286000000040000200700090b79f007fa8970012
:102870004f01de00818040008280700081b79f00a0
:102880000d0007004f3ade00000040000400700019
:10289000f0af9f00080007000402420085824a0052
:1028a00006034b0087834b00dfff07000802be00d2
:1028b0000a03be00000006002fb29700bfb29700c7
:1028c0004fb39700dfb3970000000600881f780021
:1028d00018002000881f780089ff07008f87e90013
:1028e0004f04780000000600801feb0084ff070003
:1028f0008f87e90000000600889fbe008a9fbe0007
:10290000e00f5000e08f5800e00f5900e08f5900b1
:102910000c003d006044b8006055b8000000540051
:1029200081805c0002015d0083815d001800200051
:102930001500070008003d00180007000004eb0028
:10294000050037000004eb000f00070002003d0007
:102950001200070018002000dcff07000800e0005c
:10296000060032006022b8006033b8000000520058
:1029700081805a0002015b0083815b004f05be002d
:102980004f04be0000000600e00f5200e08f5a0026
:10299000e00f5b00e08f5b00000006006044b800c1
:1029a0006055b8000402540085825c0006035d0097
:1029b00087835d0000000600889fbe008a9fbe00de
:1029c0008c1f7800e00f5000e08f5800e00f590096
:1029d000e08f59000d003d006044b8006055b8001c
:1029e0000000540081805c0002015d0083815d0075
:1029f0001c0020000820e10009a8e1000ab0e10065
:102a00000bb8e1000d003d00080037000006eb00a8
:102a1000e00f5200e08f5a00e00f5b00e08f5b0098
:102a200006003d006044b8006055b8000402540040
:102a300085825c0006035d0087835d00aaff0700b6
:102a40000c00e000060032006022b8006033b800dd
:102a50000000520081805a0002015b0083815b000c
:102a60004f0678004f05be004f04be000000060070
:020000040000fa
:102a7000000000000000000000000000005f0000f7
:102a80000000000000070000000700000014000024
:102a90007f1400007f140000242a00007f2a000019
:102aa0001223000013080000646200003649000091
:102ab0005522000050000000050300000000000047
:102ac000001c000022410000000000004122000024
:102ad0001c000000140800003e080000140800005c
:102ae000083e000008080000005000003000000010
:102af000000800000808000008080000006000004e
:102b00006000000000200000100800000402000027
:102b10003e510000494500003e000000427f000099
:102b200040000000426100005149000046210000c1
:102b3000414500004b31000018140000127f0000d6
:102b40001027000045450000453900003c4a0000c0
:102b50004949000030010000710900000503000030
:102b60003649000049490000360600004949000086
:102b7000291e0000003600003600000000000000a2
:102b8000563600000000000008140000224100003a
:102b90000014000014140000141400000041000090
:102ba0002214000008020000015100000906000084
:102bb00032490000794100003e7e00001111000002
:102bc000117e00007f49000049490000363e0000a8
:102bd00041410000412200007f41000041220000ed
:102be0001c7f000049490000494100007f090000a6
:102bf00009090000013e000041490000497a000037
:102c00007f080000080800007f000000417f0000ee
:102c10004100000020400000413f0000017f000013
:102c200008140000224100007f40000040400000e6
:102c3000407f0000020c0000027f00007f040000c3
:102c4000081000007f3e000041410000413e0000ae
:102c50007f09000009090000063e00004151000004
:102c6000215e00007f09000019290000464600008f
:102c70004949000049310000010100007f010000c6
:102c8000013f000040400000403f00001f200000c6
:102c9000402000001f3f000040380000403f00007f
:102ca00063140000081400006307000008700000af
:102cb0000807000061510000494500004300000082
:102cc0007f410000410000000204000008100000e5
:102cd00020000000414100007f00000004020000cd
:102ce000010200000440000040400000404000009d
:102cf0000001000002040000002000005454000005
:102d0000547800007f480000444400003838000038
:102d100044440000442000003844000044480000bf
:102d20007f3800005454000054180000087e000052
:102d300009010000020c000052520000523e000047
:102d40007f0800000404000078000000447d0000bb
:102d50004000000020400000443d0000007f0000d3
:102d60001028000044000000004100007f400000e7
:102d7000007c000004180000047800007c080000bb
:102d80000404000078380000444400004438000087
:102d90007c14000014140000080800001414000043
:102da000187c00007c0800000404000008480000b3
:102db0005454000054200000043f00004440000030
:102dc000203c000040400000207c00001c2000004f
:102dd000402000001c3c000040300000403c00004f
:102de0004428000010280000440c0000505000004f
:102df000503c000044640000544c000044000000bb
:102e00000836000041000000000000007f000000c4
:102e1000000000004136000008000000100800001b
:102e200008100000087800004641000046780000c5
:102e30000000000025750000002000004144000053
:102e400043760000616c0000756500003a000000e8
:102e50002000000020250000750a0000000000008e
:020000040000fa
:102e60000400fa00000f7800110798001e0190007e
:102e70009e0078000000eb00ad0107000080fa0022
:102e8000000006000400fa00000f78001107980007
:102e90001e0190009e00780010002000a401070091
:102ea0000080fa00000006000400fa00000f78001d
:102eb000110798001e0190009e007800200020005d
:102ec0009b0107000080fa00000006000400fa00e1
:102ed000000f7800110798001e0190009e007800f6
:102ee00030002000920107000080fa000000060078
:102ef0000400fa00000f7800110798001e019000ee
:102f00009e00780040002000890107000080fa0040
:102f1000000006000400fa0020479800100020007e
:102f2000000f7800708b8000620060000000e000fd
:102f300032003a00f0162100ae40900001487800bf
:102f4000708b80000000a100708b8800708b800067
:102f50000010a000708b8800708b80000030a100f2
:102f6000708b8800e0002000c08b8800401f20008c
:102f7000b08b8800708b80000020a000708b8800d0
:102f800040a82100e08b88000000eb00408c880006
:102f900040a82100f08b88000000eb00508c8800d6
:102fa00040a82100008c88000000eb00608c8800a5
:102fb00040a82100108c88000000eb00708c880075
:102fc000e0a82100208c88000000eb00808c8800a5
:102fd0005c03070039030700c0a721000e040700a7
:102fe00040a521001204070040a521001604070097
:102ff000190307000000eb00000f78001e007800a6
:103000000080fa00000006000200fa00004f78007d
:10301000f01621001e4878000080fa00000006002b
:103020000200fa0010002000000f7800708b800072
:10303000610060000000e0000a003a00708b800030
:103040000010a100708b8800f016210080c0eb00fa
:10305000014878001903070013030700d18b800093
:10306000010f78001e0078000080fa0000000600c2
:103070000200fa00004f78000b0307001e80fb00df
:10308000b08b8800f40207000080fa000000060000
:103090000400fa00000f780011079800708b800080
:1030a000640060000000e000070032001e007800ad
:1030b000808b88009e009000918b8800708b800030
:1030c0000020a100708b88000080fa00000006003c
:1030d0000400fa002047980010002000000f78003c
:1030e000708b8000610060000000e00013003a0077
:1030f000708b80000000a000708b88000000eb0047
:10310000000f78002e4090000004e0000300320021
:1031100010002000c08b8800020037002000200033
:10312000c08b880029030700d00207000004a2001a
:103130000004e000010032000d0007001e007800ce
:103140000080fa00000006000000fa0010c0b30082
:10315000dfff07000080fa00000006000000fa0010
:103160000040eb00daff07000080fa0000000600d4
:103170000000fa00030037000000eb00d90207004e
:10318000c9000700708b8000610060000000e00053
:10319000f9ff3a000080fa00000006000000fa0083
:1031a00007030700708b80000000a100708b88006f
:1031b0000000eb00d08b8800e00020000080fa00c7
:1031c000000006000000fa00708b80000000a100e3
:1031d000708b88000000eb00d08b8800e00020009e
:1031e0000080fa00000006000000fa00fb02070061
:1031f000100020000080fa00000006000000fa0025
:10320000f6020700200020000080fa0000000600ff
:103210000000fa00f1020700100020000080fa0010
:10322000000006000000fa00f00207000000eb00ba
:103230000080fa00000006000000fa00708b800099
:103240000030a000708b8800f0162100104078003c
:103250000080fb0000004000004078000004a00057
:10326000fb020700500020000080fa00000006006a
:103270000000fa00708b80000030a000708b880086
:10328000f01621001040780000404000f0020700d6
:10329000300020000080fa00000006000000fa0064
:1032a000708b80000030a100708b8800df02070067
:1032b000400020000080fa00000006000000fa0034
:1032c000e9020700500020000080fa00000006001c
:1032d0000000fa00e9020700a00020000080fa00c8
:1032e000000006000000fa00e40207009000200041
:1032f0000080fa00000006000000fa00708b8000d9
:103300000030a100708b880020002000d08b880046
:10331000018c8000608c8000010001000080e900c9
:10332000e10f500002003e00b9ff07000100370026
:10333000bcff07000080fa00000006000000fa0051
:10334000ae0207000004e0000e003200118c800085
:10335000708c800001000100e20f50000300320079
:10336000e30f500003003200040037009eff070007
:1033700016003700a1ff070014003700a9ff07005f
:1033800012003700708b80000030a100708b880025
:10339000808b8000904078000000e800808b8800df
:1033a00001407800aa020700908b80000000e9002d
:1033b000908b8800908b80000000e00002003200bb
:1033c0003000200001003700600020000080fa007b
:1033d000000006000000fa00881f7800888b80003b
:1033e00096020700004c78000800e800808b8800f7
:1033f000908b80000000e900908b8800908b80000b
:103400000000e00003003200970207005000200097
:103410000c003700708b80000020a000708b8800ab
:10342000e18b8000408c8000010001000080e900f9
:10343000e10f500002003e00aaff07000100370024
:10344000a3ff07004f0478000080fa000000060088
:103450000000fa00708b80000020a000708b8800b4
:10346000e18b8000408c800001000100e20f5000e1
:103470000a003900e30f500003003600e40f50004b
:10348000030032000500370061ff07000400370029
:103490000f020700300020000100370061ff070025
:1034a0000080fa00000006000000fa000302070096
:1034b000708b8000680060000000e00005003200b2
:1034c0004e0207000004e00002003200f00020007d
:1034d000c08b8800c08b8000800040004019210014
:1034e000008040001000780000000100c08b8800c0
:1034f0000080fa00000006000000fa00b202070097
:103500000080fa00000006000200fa00000f7800b8
:10351000100020000080fa00000006000200fa00ff
:10352000000f7800500020000080fa000000060024
:103530000600fa00000f7800110798002207980093
:103540001e0090000000e0000f0032009e00780096
:103550006780400080004000e016210000804000ad
:103560009e009000010878009e0078006d80400069
:1035700080004000e016210000804000ae00900076
:10358000010878000e0037009e0078006780400038
:1035900080004000e01621000080400041a821008a
:1035a000010878009e0078006d8040008000400097
:1035b000e0162100008040008000eb000108780048
:1035c0000080fa00000006000000fa002188a9002f
:1035d0002168a90000082000c01188003a22ef00ed
:1035e0003c22ef0020022000f0118800700620002d
:1035f000001288004222ef004c22ef004e22ef0022
:103600005022ef005222ef005422ef005622ef002a
:103610005822ef005a22ef005c22ef004002210006
:103620003080880040022100208088003012210074
:103630001080880030122100008088000870ef00a0
:10364000c0b4210008000700a0b621001500070043
:103650002168a80039e2a80038a2a8003882a80092
:103660000080fa00000006000200fa00000f780057
:103670001e0078000000e00003003a00c0b4210002
:1036800050808800020037009e007800518088003a
:103690000080fa00000006000000fa000080fa0036
:1036a000000006000200fa00000f78001e007800fb
:1036b0000000e00003003a00a0b62100608088000e
:1036c000020037009e007800618088000080fa00c8
:1036d000000006000000fa000080fa00000006006a
:1036e0000200fa000040eb00004f780000000000ec
:1036f0001180800000808000808f5000fcff32002d
:1037000010808000104f7800108080000000e800da
:103710001080880011808000c0122100808f50002e
:1037200002003a0030122100108088001e4078000c
:103730000080fa00000006000200fa00004f780046
:10374000000000001c0007000004a2000004e000cc
:10375000fcff3a00208080001e4878002080800016
:103760000000e800208088002180800030122100c5
:10377000808f500002003a00400221002080880023
:103780002188a8000080fa00000006000000fa006e
:1037900011808000008080000080680000f0a70099
:1037a0000000ea000000ea004f00de000040780060
:1037b0000080fa00000006000400fa00318080005a
:1037c00011079800218080001e009000808f50001b
:1037d000060031009e009000208080000080500094
:1037e0000000e900000f7800050037009e009000ff
:1037f0002080800000805000e00fb000000f7800b3
:103800001e00780000f0a7000000ea000000ea00b7
:103810004f00de00004078000080fa000000060043
:103820000000fa002180800030808000808f5000ee
:1038300009003a00e11180000008200000806000cb
:1038400000f0a7000000ea000000ea004f00de00e0
:1038500000407800010037000040eb000080fa00d3
:10386000000006000400fa000180800011079800a3
:10387000108080009e009000808f50000600310074
:103880009e00900010808000008050006900400081
:10389000000f7800030037009e0090001080800029
:1038a000008f5000f00f20009e007800808f5000a5
:1038b0000200360000c0eb00020037001e00780056
:1038c000004078000080fa00000006000400fa00c2
:1038d0003180800011079800218080001e00900038
:1038e000808f5000060031009e00900020808000f4
:1038f000008050000000e900000f7800050037004c
:103900009e0090002080800000805000e00fb000fa
:10391000000f7800f00f20009e007800808f50008c
:103920000200360000c0eb00020037001e007800e5
:10393000004078000080fa00000006000800fa004d
:103940002007980031079800c6ff07000080fb00a1
:10395000000f78003e0090009e0f500002003100e2
:10396000be009000010f78000000eb0010079800e7
:10397000090037005aff0700ae0090008048780029
:103980002e0090000000e800200798001e00900024
:103990000000e800100798001e0090009e0f5000e5
:1039a000f4ff39001e0078000080fa0000000600d5
:1039b0000800fa002007980031079800c3ff0700ad
:1039c0000080fb00000f78003e0090009e0f50002a
:1039d00002003100be009000010f78000000eb00f3
:1039e00010079800090037002e0090001040780062
:1039f000ae0090008100e800210798004eff07000c
:103a00001e0090000000e800100798001e009000c3
:103a10009e0f5000f4ff39001e0078000080fa006d
:103a2000000006000400fa000000eb00000f780020
:103a30008cff070020479800a4ff0700304798003c
:103a40002e4090000080fb000000e00003003200e8
:103a5000e90f500003003200040037001e20a000d0
:103a6000040037001e00a000020037001e10a00056
:103a7000000000003e4090000080fb000000e000dd
:103a800003003200e90f5000030032000400370049
:103a90001e30a000020037001e40a0000000000001
:103aa0001e0078000080fa00000006000400fa0002
:103ab00010079800118080001e009000008f4000c9
:103ac000020037009e007800698f5000c01221006c
:103ad0009e007800808f5000faff3e001e007800a4
:103ae000104078000080fa00000006000000fa0094
:103af0005cff07000080fb000000e9004f00de00d3
:103b0000004078000080fa00000006000000fa0083
:103b10006eff07000080fb000000e9004f00de00a0
:103b2000004078000080fa00000006000400fa005f
:103b3000f01180008000eb00008fbe001e00be0070
:103b4000c001dd0002002000e01180008000eb00d9
:103b500000007100818071000080fa000000060002
:103b60000000fa0059ff07000004e00010003200d6
:103b70003180800020808000808f50000600360059
:103b8000308080008000780020808000008050001d
:103b90000000e900070037003080800080007800d6
:103ba0002080800000805000e00fb000010037004e
:103bb0000000eb000080fa00000006000000fa00a0
:103bc00028ff07000004e000100032001180800090
:103bd00000808000808f500006003600108080003a
:103be0008000780000808000008050000000e90024
:103bf000070037001080800080007800008080007f
:103c00000080500068004000010037000000eb0019
:103c10000080fa00000006000000fa0039e2a80067
:103c200038a2a8003882a8000080fa000000060030
:103c30000000fa0039e2a90038a2a9003882a900e0
:103c40000080fa00000006000000fa0001e2a9006e
:103c50000080fa00000006000000fa002228a800f8
:103c60002208a8000080fa00000006000000fa0008
:103c700010418000620060000000e00004003a0093
:103c800010418000610060000000e000020032008e
:103c900010002000010037000000eb000040780019
:103ca0000080fa00000006000000fa002228a900a7
:103cb0002208a9000080fa00000006000000fa00b7
:103cc0000228a9000208a9000080fa0000000600ee
:103cd0000000fa000228a8000208a8000080fa00ec
:103ce000000006000200fa00000f7800104080007b
:103cf000620060000000e00010003a001040800008
:103d0000610060000000e0000c003a0010408000fc
:103d1000620060000000e00008003a0010408000ef
:103d2000610060000000e00004003a00001920007b
:103d3000010020003a060700f4ff37000080fa0077
:103d4000000006000000fa000110800000002800ba
:103d5000008060000000e00007003a000422ef004d
:103d6000000028000010880020012000801088003a
:103d700010c0b300010037000040eb000080fa00e3
:103d8000000006000000fa0001108000000028007a
:103d9000008060000000e00006003a000222a80057
:103da0000202a80000c2a80001e2a80010c0b300ef
:103db000010037000040eb000080fa000000060020
:103dc0000000fa000080fa00000006000000fa007f
:103dd0000002a8000080fa00000006000000fa00bf
:103de0000022a8000080fa00000006000000fa008f
:103df0000042a8000080fa00000006000000fa005f
:103e000020108000ff800a00000000000080fb00fe
:103e100000f0a7000000ea000000ea004f00de000a
:103e2000004078000080fa00000006000000fa0060
:103e30000062a8000080fa00000006000000fa00fe
:103e4000c0108000004078000080fa0000000600ea
:103e50000200fa00004f78001e80fb00a0108800ce
:103e60000080fa00000006000000fa0000a2a9008d
:103e70000082a8000080fa00000006000000fa009e
:103e800000a2a8000082a8000080fa00000006003e
:103e90000000fa000182a8000080fa00000006007d
:103ea0000000fa0020108000620060000000e000c6
:103eb00004003a0020108000610060000000e00073
:103ec0000200320010002000010037000000eb006b
:103ed000004078000080fa00000006000000fa00b0
:103ee0002010800033800a00000000000080fb00ea
:103ef00000f0a7000000ea000000ea004f00de002a
:103f0000004078000080fa00000006000000fa007f
:103f100021108000000220000080600000f0a70057
:103f20000000ea000000e9004f00de0000407800d9
:103f30000080fa00000006000000fa002010800057
:103f400044800a00000000000080fb0000f0a70091
:103f50000000ea000000ea004f00de0000407800a8
:103f60000080fa00000006000000fa002010800027
:103f700055800a00000000000080fb0000f0a70050
:103f80000000ea000000ea004f00de000040780078
:103f90000080fa00000006000000fa0020108000f7
:103fa00022800a00000000000080fb0000f0a70053
:103fb0000000ea000000ea004f00de000040780048
:103fc0000080fa00000006000000fa000542a90087
:103fd0000080fa00000006000000fa0002a2a8001b
:103fe0000080fa00000006000000fa0002a2a9000a
:103ff0000080fa00000006000000fa0002c2a800db
:104000000080fa00000006000000fa0002c2a900c9
:104010000080fa00000006000200fa00000f78009d
:104020009e007800b18088000080fa000000060041
:104030000200fa00000f78009e007800c18088001e
:104040000080fa00000006000200fa00000f78006d
:104050009e007800d18088000080fa0000000600f1
:104060000200fa00000f7800110020001e00780006
:1040700007fc07008000eb000000eb0078fb070066
:10408000400020000080fa00000006000400fa0052
:10409000004f780011479800224798000000000068
:1040a0001e4078009bfb07000000e000fcff320090
:1040b0000e80e800800078000003220068fb070003
:1040c0000e00e80011002000f1fb07008000eb006b
:1040d000c0af220074fb070020fc070000000000b6
:1040e000cffb0700e10f5000fdff32000080fa0017
:1040f000000006000600fa00004f78001107980043
:1041000022079800000000001e40780081fb070095
:104110000000e000fcff3200ae0090001e009000a6
:10412000dbfb07008000eb00c0af22005efb070056
:104130000afc070000000000b9fb0700e10f500077
:10414000fdff32000080fa00000006000200fa00c5
:10415000000f7800110020001e007800ccfb070043
:104160008000eb000000eb003dfb0700200020007a
:104170000080fa00000006000800fa00604798007e
:1041800071479800a0c2b30040479800200020006b
:10419000000f780019003700000000006e4090000a
:1041a0005cfb07000000e000fcff320064004700f9
:1041b00080007800600a220029fb070067004700a2
:1041c00011002000b2fb07008000eb00c0af22000e
:1041d00035fb0700e1fb070091fb07001007980083
:1041e0001e009000e10f5000fbff32001e00900007
:1041f0000000e000050032001e0fe9001e007800fc
:104200000000e000e4ff3a00010037000000000079
:104210004e4090000080fa00000006000200fa0004
:10422000000f7800210020001e00780098fb070096
:104230008000eb000000eb0009fb070020002000dd
:104240000080fa00000006000400fa0020479800f1
:1042500031479800000000002e4090002dfb070021
:104260000000e000fcff32008e007800e010220029
:10427000fbfa0700630047001100200084fb0700e1
:104280008000eb00c0af220007fb0700b3fb070074
:104290000000000062fb0700e10f5000fdff32004c
:1042a0001e007800c800dd004800de0000807000bd
:1042b0000080fa00000006000200fa00000f7800fb
:1042c000210020001e00780071fb07008000eb0039
:1042d0000000eb00e2fa0700400020000080fa0036
:1042e000000006000400fa00004f78001147980013
:1042f00012079800000000001e40780005fb070030
:104300000000e000fcff32000e80e8008000780032
:10431000c0152200d2fa07000e00e80011002000ac
:104320005bfb07008000eb00c0af2200defa070055
:104330008afb07000000000039fb0700e10f500076
:10434000fdff32000080fa00000006000200fa00c3
:10435000000f78001e007800900078001e007800a2
:10436000100090004afb07008000eb000000eb000b
:10437000bbfa0700200020000080fa0000000600c1
:104380000a00fa0040479800514798003207980009
:10439000430798003e00900010079800ce00900060
:1043a000010f7800000000004e409000d9fa07008d
:1043b0000000e000fcff32008e007800601a22004e
:1043c000a7fa0700650047001100200030fb070036
:1043d0008000eb00c0af2200b3fa07005ffb0700cc
:1043e000000000000efb0700e10f5000fdff32004f
:1043f0000080fa00000006000600fa00004f780076
:104400001107980022079800000000001e40780065
:10441000c0fa07000000e000fcff3200ae00900090
:104420001e0090001afb070047fb07000000000079
:10443000fbfa0700e10f5000fdff32000080fa0098
:10444000000006000000fa00002bef00000620002c
:1044500010588800042bef00062bef00082bef000c
:104460000a2bef000c2bef000e2bef00102bef00b0
:10447000122bef00142bef00162bef00202bef0078
:104480000030200010598800382bef00402bef003f
:10449000482bef00502bef003a2bef00422bef00a0
:1044a0004a2bef00522bef003c2bef00442bef0088
:1044b0004c2bef00542bef003e2bef00462bef0070
:1044c0004e2bef00562bef0000402000505b880081
:1044d00000402000705b880000402000905b880056
:1044e00000402000b05b8800a02bef00a42bef0061
:1044f000a82bef00ac2bef00d02bef00d22bef005e
:10450000d42bef00d82bef0000302000b05e8800e5
:1045100000302000d05e8800f02bef00f22bef007f
:10452000022cef00a0312200450007008034220059
:104530005b000700c037220073000700003922002b
:104540007b0007001808a9003808a8001828a9004f
:104550003828a8001160800000f0200001007000e1
:104560001060880001eba80027000700802bef00f7
:10457000822bef00842bef00862bef00882bef00bf
:104580008a2bef008c2bef008e2bef00902bef008f
:10459000922bef00942bef0000102000b05c8800fd
:1045a00010102000c05c88000080fa0000000600a7
:1045b0000000fa00000ca80000000000016080006c
:1045c00000102000008060000000e000fbff3200cf
:1045d0000a0ba8000080fa00000006000000fa00a4
:1045e000002ca800000000000160800000202000d6
:1045f000008060000000e000fbff32000a2ba800f2
:104600000080fa00000006000000fa0000eca8009c
:1046100000000000016080000000280000806000b1
:104620000000e000fbff32000aeba8000080fa0067
:10463000000006000000fa000080fa0000000600fa
:104640000200fa00000f78001e00780070808800d9
:104650000080fa00000006000000fa0051408000cf
:1046600000402000008060000000e00006003200f2
:10467000708080000000e000020032007080800046
:10468000000001000b48a9000080fa0000000600ad
:104690000200fa00000f78000080fa000000060017
:1046a0000200fa00000f78001e0078008080880069
:1046b0000080fa00000006000200fa009159800014
:1046c00000082000008060000000e00008003200c8
:1046d000d1618000010f7800808080000000e00040
:1046e00003003200818080001e007800010001007c
:1046f0000080fa00000006000200fa00000f7800b7
:104700000080fa00000006000200fa00000f7800a6
:104710001e007800908088000080fa0000000600eb
:104720000200fa00000f78000080fa000000060086
:104730000200fa00000f78001e007800a0808800b8
:104740000080fa00000006000000fa0001eba8005b
:104750000080fa00000006000000fa0008cba80064
:104760000080fa00000006000000fa0008cba90053
:104770000080fa00000006000200fa00000f780036
:104780000080fa00000006000400fa0010079800fc
:104790001e009000e10f500008003200e10f5000b1
:1047a00003003900e20f5000070032000900370013
:1047b000d1618000010f780006003700e1618000c0
:1047c000010f780003003700f1618000010f7800cd
:1047d000000000001e0078000080fa0000000600c3
:1047e0000400fa00100798001e009000e10f50002e
:1047f0000f003200e10f500003003900e20f5000bb
:10480000150032001e0037009059800077800a00a2
:10481000000000000080fb0000f0a7000000ea009c
:104820000000ea004f00de00004f7800140037005f
:104830009059800088800a00000000000080fb0082
:1048400000f0a7000000ea000000ea004f00de00d0
:10485000004f78000a0037009059800099800a00c4
:10486000000000000080fb0000f0a7000000ea004c
:104870000000ea004f00de00004f7800000000005a
:104880001e4078000080fa00000006000400fa00d4
:104890000000eb00000f7800afff07000000eb0006
:1048a000000f7800010037001e0fe800703e200066
:1048b0009e007800808f5000fbff3400aaff0700a5
:1048c00000000000c0b88400c5ff07000004a2007b
:1048d0000004e000fbff3a00c0b88400aaff070014
:1048e000100798001e0090000080fa0000000600eb
:1048f0000c00fa002a0307003502070092ff0700a8
:10490000c0b884009cff070057000700bd000700e7
:10491000b073800066800a00000000000004a2005e
:10492000614060000080fb00610060004600dd0027
:10493000b17380000160a10001007000b0738800b5
:1049400000902000d103200035030700cfff0700af
:10495000000f78000e80e8009e1f7800a1712900ea
:10496000811f7800fcf00700e487570010c0b300f7
:10497000c0000700d07129007200070000882300e2
:10498000110020002603070030c0b300b900070063
:10499000807229006b0007000e80e80069000700a4
:1049a00000d02200111320001d03070030c0b30007
:1049b000a10007009e1f7800a0722900801f7800c8
:1049c000d6f00700e487570000a82100610020000e
:1049d000130307000040eb009700070020c0b3005e
:1049e0009500070040c0b3009300070050c0b3001b
:1049f0009100070060c0b3008f00070070c0b300d3
:104a00008d000700c2ff37000400fa00204798001d
:104a10000040eb00004f7800ae4090001147980036
:104a2000220020008e007800c0c3b300b1fd070053
:104a30000080fa00000006000400fa0020479800f9
:104a400000c4b300004f7800ae40900011479800ba
:104a5000220020008e007800c0c3b300a5fd07002f
:104a60000080fa00000006000000fa00e0cab3006f
:104a7000e5ff070050cdb300e3ff070000c8b30017
:104a8000e1ff070080cab300dfff0700f0c3b300f7
:104a9000ddff070030cdb300dbff07000040eb0077
:104aa000d9ff070000c4b300d7ff0700d0c8b30088
:104ab000d5ff070040c1b300d3ff070000c2b30019
:104ac000d1ff07000040eb00cfff070010cab30082
:104ad000cdff070080ccb300cbff0700a0cdb30013
:104ae000c9ff070020c1b300c7ff070010c8b3000b
:104af000c5ff0700f0ccb300c3ff070090cdb300a3
:104b0000c1ff070010cfb300bfff0700b0cdb30057
:104b1000bdff070000c4b300bbff070040cab300dd
:104b2000b9ff070060cab300b7ff0700e0c2b300d7
:104b3000b5ff0700f0cab300b3ff07000080fa001a
:104b4000000006000200fa00000f780004003700a1
:104b50001e007800104078001e0fe80006000700d5
:104b60001e007800104078000004e000f8ff3a00d2
:104b70000080fa00000006000400fa0020479800b8
:104b80000040eb00acff07000040eb00004f780056
:104b90000d0037002e4090000000fb0001fe2f00aa
:104ba000808040001e80fb00e509b900820078008b
:104bb00000804000815329000080400010407800b0
:104bc0009dff07001e4fe8001e407800e44f500094
:104bd000f0ff36000040eb0097ff07000080fa006e
:104be000000006000200fa00004f780010c8b30071
:104bf00085ff07001e40780083ff07000080fa0051
:104c0000000006000200fa000000eb00000f780030
:104c1000030037000040eb0087ff07001e0fe8008d
:104c2000f03f20009e007800808f5000f9ff360092
:104c30000080fa00000006000400fa0020479800f7
:104c40002e4090000b0007000040eb00004f780062
:104c5000030037000040eb0077ff07001e4fe8001d
:104c60001e4078000004e000faff3d000080fa00da
:104c7000000006000400fa0020479800ae409000b3
:104c800000cbb30000cf70001e4078005eff07002d
:104c90000040eb005cff070000c1b3005aff0700b3
:104ca0000080fa00000006000000fa00007c80008e
:104cb0000080fa00000006000200fa00faff070078
:104cc000000f78001e007800240007000004e000b8
:104cd0000200320000002800710007001e0078006a
:104ce0002a0007000004e000020032000000240057
:104cf0006b0007001e007800320007000004e0008f
:104d00000200320000202000650007001e0078002d
:104d10003a0007000004e000020032000008200012
:104d20005f0007001e007800420007000004e0005a
:104d30000200320000042000590007001e00780025
:104d40004a0007000004e0000200320000012000d9
:104d5000530007000080fa00000006000400fa007b
:104d6000100798000040eb00004f78001e009000f4
:104d70000000e00002003d0010c0b300004f7800ca
:104d80001e4078000080fa00000006000400fa00cf
:104d9000100798000040eb00004f78009e00900044
:104da00000002400008060000000e00002003200eb
:104db00010c0b300004f78001e4078000080fa0059
:104dc000000006000400fa00100798000040eb0005
:104dd000004f78009e0090000020200000806000be
:104de0000000e0000200320010c0b300004f780065
:104df0001e4078000080fa00000006000400fa005f
:104e0000100798000040eb00004f78009e009000d3
:104e100000082000008060000000e0000200320076
:104e200010c0b300004f78001e4078000080fa00e8
:104e3000000006000400fa00100798000040eb0094
:104e4000004f78009e009000000420000080600069
:104e50000000e0000200320010c0b300004f7800f4
:104e60001e4078000080fa00000006000400fa00ee
:104e7000100798000040eb00004f78001e009000e3
:104e8000700060000000e0000200320010c0b300bb
:104e9000004f78001e4078000080fa0000000600f5
:104ea0000200fa00000f78009e80ea00007c80007b
:104eb00000806000007c88000080fa00000006008e
:104ec0000000fa00802fef000080fa0000000600ca
:104ed0000000fa000421ef000080eb004008880089
:104ee0002023280000088800108180000000e000d6
:104ef00002003a00007c2200240007000028a900dc
:104f00002028a800201f21008040eb0001487800e5
:104f10000080fa00000006000200fa00000f78008e
:104f20009e00780041088800201f21008040eb008f
:104f3000014878000080fa00000006000000fa0036
:104f4000400880000080fa00000006000200fa001d
:104f5000000f78009e00780021088800201f2100a3
:104f60008040eb00014878000080fa000000060055
:104f70000000fa00200880000080fa00000006000f
:104f80000000fa000080fa00000006000200fa00ab
:104f9000000f78002028a9009e0078001181880069
:104fa0002028a8000080fa00000006000000fa0097
:104fb000201f21008040eb00014878002028a80035
:104fc00001e1a8000080fa00000006000000fa00dd
:104fd00001e1a9002028a9000080fa0000000600d5
:104fe0000200fa00201f2100104f78001e407800b8
:104ff0000004e00003003200201f21008040eb008d
:10500000014878001e4078000080fa000000060089
:105010000000fa00301f2100104078000080fb00e3
:105020000080fa00000006000000fa00301f210096
:105030008040eb00014878000080fa000000060084
:020000040000fa
:10504000941100002000000082000000e2181c0003
:10505000193819009e19ea00194e1900281af4008f
:1050600018fe180008191200195e1900681972005c
:1050700019ce18007c1900006e11000026000000f7
:1050800080000000b411000020000000800000003b
:10509000201000000200000082000000ffff00005e
:1050a000f211000002000000800000002210000049
:1050b0000200000080000000241000000801000031
:1050c00080000000001000000e00000080000000c2
:1050d0000e10000008000000800000001610000004
:1050e00006000000800000001c100000040000000a
:1050f000800000002c11000042000000820000002f
:1051000030113200113211000100030000000000d4
:10511000000000000000000000003200100000004d
:105120000000000000de0a00c606000000000000cb
:10513000000000000000000000000000000000006f
:10514000000000000000000000000000000000005f
:105150000000000000000000d41100001e0000004c
:1051600082000000286e69006c290000250068009c
:10517000076c09004c836a009074a0007ac000009c
:105180008068880000846c0082008100f4110000b7
:0c51900002000000800000000000000091
:020000040000fa
:10519c000000fa000000eb0069ff0700e2808000cd
:1051ac00f38080000000200011002000020040006d
:1051bc0083804800e0808800f18088000080fa003d
:1051cc00000006000000fa001c30ef001e30ef005b
:1051dc00e08c22006aff07000080fa000000060045
:1051ec000600fa00000f78001207980023079800b9
:1051fc001e007800104078000004e0001900320016
:10520c0058ff07006101b800e0808000f180800049
:10521c0002004000838048001e01780010019800b5
:10522c00210198002e009000ff01b9001e00900093
:10523c00e000b900000141009e009000f001200048
:10524c000008b80001014100820078001e017800be
:10525c0030019800410198001e0078008040eb005e
:10526c00014878003fff07006101b800e080800032
:10527c00f180800002014000838148001e0078000c
:10528c00a000900010009000000151008181590095
:10529c001e007800c000900030009000800f51007c
:1052ac00818f5900030039001e00780011c0b30033
:1052bc00014878001e007800104078000080fa0049
:1052cc00000006000000fa00062eef00222eef0070
:1052dc003e2eef005a2eef00762eef00f00120004c
:1052ec0010708800d0ff2f00f07088000080eb0059
:1052fc00d0718800f0fe2f00b0728800f0f92f00fa
:10530c00907388000c2eef00282eef00442eef0037
:10531c00602eef007c2eef000a2eef00262eef0001
:10532c00422eef005e2eef007a2eef00082eef00db
:10533c00242eef00402eef005c2eef00782eef00b5
:10534c00f001200000708800d0092000e070880077
:10535c00f00c2000c071880000c02200a0728800f0
:10536c00f0002000807388000000eb005105200045
:10537c00b1468800a10a2000b14688000068880068
:10538c00216d800000fc2f00008060000000a00058
:10539c00206d880030c4b30028edb70000802000d9
:1053ac0051052000b1468800a10a2000b1468800b2
:1053bc00006888000080fa00000006000000fa0077
:1053cc0010002300307c880060092000407c88009d
:1053dc008c2fef0010042000507c8800101020004f
:1053ec00707c880060092000807c880010042000fc
:1053fc00907c88009a2fef00b82fef00ba2fef00a7
:10540c00be2fef00002def00a02fef00a42fef0018
:10541c00a62fef00a82fef00aa2fef00ae2fef0062
:10542c00b02fef00b22fef00720020008007200099
:10543c00a109200053f820008049780081497800a8
